S01600003370692D6D617A65736F6C7665722E737265638D
S11300000C9456000C9473000C9473000C947300BD
S11300100C9473000C9473000C9473000C94730090
S11300200C9473000C94820B0C9473000C94730066
S11300300C9473000C943A080C9473000C947300A1
S11300400C9473000C9473000C9473000C94730060
S11300500C9473000C9473000C9473000C94730050
S11300600C9473000C947300000000000000001F47
S11300701F1F1F1F1F1F4C31362063646567726585
S11300806734003E6733323E3E63333200736F6C35
S1130090766572004D617A650033F720526F626FA6
S11300A0740020506F6C6F6C7500460C11241FBED9
S11300B0CFEFD8E0DEBFCDBF11E0A0E0B1E0E0ECCF
S11300C0F6E202C005900D92A436B107D9F723E0F9
S11300D0A4E6B1E001C01D92A038B207E1F70E9486
S11300E040020C9453130C94000060E088E690E006
S11300F00E947B0961E089E690E00E947B0962E04E
S11301008AE690E00E947B0963E08BE690E00E941F
S11301107B0964E08CE690E00E947B0965E08DE653
S113012090E00E947B0966E08EE690E00E947B09E5
S11301300C94EE09BF92CF92DF92EF92FF920F934D
S11301401F93CF93DF93CDB7DEB72A970FB6F894FA
S1130150DEBF0FBECDBF8C017C018AE0E80EF11C2E
S11301608AE0B82E95E6C92ED12CE6E1F1E0DE0155
S113017011968B2D01900D928A95E1F7F8018191EA
S113018091918F01B6010E945E11E1E0F0E0EC0F65
S1130190FD1FE60FF71F80810E947E090E151F05C3
S11301A021F72A960FB6F894DEBF0FBECDBFDF91BC
S11301B0CF911F910F91FF90EF90DF90CF90BF9060
S11301C008952F923F924F925F926F927F928F92F7
S11301D09F92AF92BF92CF92DF92EF92FF920F93D2
S11301E01F93CF93DF93CDB7DEB72A970FB6F8945A
S11301F0DEBF0FBECDBFC12CD12C7601A12CB12CFA
S113020060E1462E67E2562E612C712C74E1272E94
S1130210312CECE38E2E912C61E0CE0101960E94EC
S11302200C0C8C01005D1740C801012E000CAA0BB8
S1130230BB0BC80ED91EEA1EFB1EC701B601A301E3
S113024092010E94A811F801EA19FB09CF01880F55
S1130250991F8E0F9F1F97FD019695958795280FDF
S1130260391FC801B1010E947211C901860F971F7D
S11302708D3391056CF4843C2FEF92071CF097FDAD
S113028003C008C084EC9FEF6CE370E0CC9607C019
S11302908CE390E0B401681B790B8CE390E00E943E
S11302A03C0B8B819C818436910550F48D819E8119
S11302B08436910528F48F8198858436910560F001
S11302C089819A81893C910538F489859A85893C8C
S11302D0910510F45801A0CF2A960FB6F894DEBF0A
S11302E00FBECDBFDF91CF911F910F91FF90EF9083
S11302F0DF90CF90BF90AF909F908F907F906F9042
S11303005F904F903F902F9008950F931F93CF933A
S1130310DF93CDB7DEB72A970FB6F894DEBF0FBED2
S1130320CDBF80ED97E00E94420C0E94750082EAE6
S113033090E00E940E0A61E080E00E94860A89E94A
S113034090E00E940E0A83E890E00E94BB0888EEC9
S113035093E00E94CA0B0E94EE0984E990E00E9497
S11303600E0A61E080E00E94860A8DE890E00E9417
S11303700E0A88EE93E00E94CA0B80E10E947F0B74
S113038081111AC00E9480058C010E94EE09B801F7
S1130390110F880B990B0E94630A8DE391E00E9470
S11303A0FD0961E080E00E94860A80E491E00E94F9
S11303B0FD0984E690E0DFCF80E10E946B0B88EEBC
S11303C093E00E94CA0B0CEE1FEF0832110528F0CF
S11303D068ED7FEF88E290E004C068E270E088EDA9
S11303E09FEF0E943C0B81E00E94060C84E190E0A8
S11303F00E94CA0B0F5F1F4F0C33110531F760E0E9
S113040070E080E090E00E943C0B80E10E947F0B52
S113041081111AC061E0CE0101960E940C0C8C017E
S11304200E94EE09B80180E090E00E94630A61E056
S113043080E00E94860ACE0101960E949A0084E61A
S113044090E00E94CA0BE1CF80E10E946B0B0E94F6
S1130450EE0988E491E00E94FD0986E790E00E949D
S1130460BB080E949A088111FCCF2A960FB6F89413
S1130470DEBF0FBECDBFDF91CF911F910F910895C5
S11304800E9485010E94B902FFCF811106C061114B
S113049006C0411106C082E408958CE4089583E502
S11304A0089582E50895882339F0442361F06111A9
S11304B00FC083E390E00895442369F0662359F064
S11304C082E390E00895662331F081E390E008959B
S11304D084E390E0089580E390E008954091C7019B
S11304E0433008F445C0242F30E028533E4FF9012F
S11304F0329780818234E1F5F90161E070E080E0B7
S113050090E052915C3451F0523529F0523441F468
S11305108C549F4F05C0865A9F4F02C0825F9E4FE6
S11305206F5F7F4F6430710561F768E671E00E9488
S113053072118A35910589F034F4892BB1F4F901EB
S1130540339783E511C0843B910559F08E30914077
S113055061F4F90133978CE407C0F901339782E51C
S113056003C0F901339782E4808342504093C7016A
S11305700895CF93DF93CDB7DEB72B970FB6F894DA
S1130580DEBF0FBECDBF0E94E10062E370E082E3F4
S113059090E00E943C0B82E390E00E94CA0B61E071
S11305A0CE0101960E940C0C01E089819A81853666
S11305B0910508F400E0FF24F39489859A85853633
S11305C0910508F4F12C68E270E088E290E00E9462
S11305D03C0B88EC90E00E94CA0B61E0CE010196CE
S11305E00E940C0C8B819C81893C910560F48D8167
S11305F09E81893C9105A0F48F819885893C910561
S113060078F410E00EC08935924050F08D819E81BF
S11306108935924028F08F8198858935924018F564
S113062011E04F2D612F802F0E944502E82E4F2D9F
S1130630612F802F0E9453028C018E2D0E94900402
S113064090913702292F30E0F901E85CFD4FE082F8
S1130650220F331FF901EC54FD4F118300839F5F78
S11306609093370290CF04E610E010922C0260E0E1
S113067070E080E090E00E943C0B8CE491E00E94EA
S1130680AA0880E10E947F0B811113C00E94EE0929
S113069082E591E00E94FD0961E080E00E94860A03
S11306A080E491E00E94FD098EE190E00E94CA0B73
S11306B0E8CF80E10E947F0B882399F00E94EE0925
S11306C08CE591E00E94FD0961E080E00E94860AC9
S11306D088E491E00E94FD0988EE93E00E94CA0B31
S11306E0E8CFE12CF12C0E94E10062E370E082E3A8
S11306F090E00E943C0B82E390E00E94CA0B61E010
S1130700CE0101960E940C0CDD24D39489819A8138
S11307108536910508F4D12CCC24C39489859A8517
S11307208536910508F4C12C68E270E088E290E017
S11307300E943C0B88EC90E00E94CA0B61E0CE0161
S113074001960E940C0C8B819C81893C910568F474
S11307508D819E81893C910540F491E02F813885FB
S1130760293C310518F490E001C091E04C2D692F2B
S11307708D2D9B870E944502B82E4C2D9B85692F99
S11307808D2D0E9453026C018B2D0E949004909138
S11307902C02292F30E0F901E35DFD4FB082220FD6
S11307A0331FF901E056FD4FD182C0829F5F22E4DE
S11307B0B21619F08FEFE81AF80A90932C02E4E0CD
S11307C0EE16F1040CF48FCF20912C0230E0680176
S11307D0C21AD30AA0901401B090150140E050E071
S11307E04C155D056CF580E090E07A01E20EF31E95
S11307F024C0BA01680F791FDB01A85CBD4FFC015E
S1130800E35DFD4FF081EC91FE1326C0DC01AA0FDD
S1130810BB1FA056BD4F660F771FFB01EC54FD4F65
S11308206D917C910190F081E02D6E177F07A1F40A
S113083001968217930709F4570182179307CCF2A4
S11308404F5F5F4F4436510559F6A0921401B092A0
S11308501501E12CF12C03C084E690E0EACF8091ED
S11308601401909115019801281B390BE216F30627
S1130870BCF42091C701E22FF0E0E853FE4FA7013A
S1130880485C5D4FDA01A80FB91F8C9180832F5FFC
S11308902093C7010E946E02FFEFEF1AFF0ADFCF19
S11308A088ECE82E81E0F82E8091C70190E0970152
S11308B0285C3140281739070CF0D7CE0E94E1009C
S11308C062E370E082E390E00E943C0B82E390E0FC
S11308D00E94CA0B68E270E088E290E00E943C0B40
S11308E088EC90E00E94CA0BF70181917F010E947D
S11308F0900461E0CE0101960E940C0C8B819C81D6
S11309008935924088F28D819E818935924060F2CA
S11309108F8198858935924038F21092C701C4CFEF
S11309208C3469F0823581F08234C1F460EB7FEF5E
S113093080E590E00E943C0B80E991E00DC060E509
S113094070E080EB9FEF04C060EB7FEF80E590E008
S11309500E943C0B88EC90E00C94CA0B0895ECE7E1
S1130960F0E080818F7D80830895811103C00E940F
S1130970AF04089580917C00806280937C00089588
S113098080917C0085FB882780F908950E94C0042B
S1130990882321F08091790090E008958091780077
S11309A09091790008958032A0F497E890937A00AA
S11309B090917C00662311F0906C02C09F77906444
S11309C0907E982B90937C0080917A008064809331
S11309D07A000895A0E0B0E0E0EFF4E00C94F311A5
S11309E0EB0160E00E94D30480917A0086FDFCCF85
S11309F08E01C12CD12C760180917A008064809381
S1130A007A0080917A0086FDFCCF0E94C604C80E4D
S1130A10D91EE11CF11C015011090115110561F7E2
S1130A20CE0196958795C034D10538F48C0D9D1D63
S1130A30BE010E945E11CB010EC0A7019601280FD2
S1130A40391F411D511DCA01B9019E0140E050E00A
S1130A500E948611C901CDB7DEB7E8E00C940F12ED
S1130A60CF92DF92EF92FF92A0910001B091010129
S1130A709C010E94C7116B017C010E94C004882361
S1130A8059F0C701B60161587F4F8F4F9F4F2FEF29
S1130A9030E040E050E00AC0C701B60161507E4F2B
S1130AA08F4F9F4F2FEF33E040E050E00E948611BC
S1130AB0C901FF90EF90DF90CF9008950E94EA045F
S1130AC00E94300508951F93CF93DF930E94C004C2
S1130AD0182F0E94AF046AE070E086E00E945E0571
S1130AE0EC01812F0E94B504CE01880F991F8C0F51
S1130AF09D1F019696958795DF91CF911F9108953B
S1130B000E946305089590916901E0916401F09158
S1130B106501992311F0849101C080812FEB280F86
S1130B202A3110F4805E0895803249F49F012F5FCA
S1130B303F4F3093650120936401EF2B31F7089503
S1130B401F93CF93DF930E948305C0E0D0E01AE0A7
S1130B5090ED980F9A30B8F49E01129FE001139F14
S1130B60D00D1124C80FD11D87FDDA95E09780912F
S1130B7064019091650101969093650180936401ED
S1130B800E948305E5CFCE01DF91CF911F91089597
S1130B9010926F0083E28093800081E18093810052
S1130BA01092820080E197E29093890080938800FC
S1130BB010928B0010928A00229A789408958F9252
S1130BC09F92AF92BF92DF92EF92FF920F931F9387
S1130BD0CF93DF935C018B01D42E80916601811148
S1130BE005C081E0809366010E94C80510920B0144
S1130BF0B7FE05C0E894B7F82AE0F22E02C0FF243D
S1130C00F394E09081002E2D287FE22E48ECF49E90
S1130C10C00111248A159B05E0F4E50151E1A516F4
S1130C2057E2B50610F0C0E1D7E2BE0176956795AC
S1130C3080E090E06058794687469F4F4E01A12C92
S1130C40B12CA50194010E94861159018E2D816059
S1130C5024C0C8E2FC9EC02D1124D0E0CA15DB05D7
S1130C6008F4E501BE01769567959E0140E050E0E9
S1130C708AE0F81207C080E090E0605E734481442B
S1130C809F4F06C080E090E060537D4E8C4E9F4F96
S1130C900E94861159018E2D8260882E2AE0F2125C
S1130CA007C0CE0105966AE070E00E945E11EB0178
S1130CB0C83E43E0D40759F09801DE010E94C711F1
S1130CC028EE33E040E050E00E94A8118901109220
S1130CD06F0080928100B0928900A09288002091D8
S1130CE08800309189004D2D403108F04FE080E1BB
S1130CF090E0841B9109A90102C0569547958A95F5
S1130D00E2F750938B0040938A0010936C01009398
S1130D106B0186B38FEF86BB81E080936F00DF9118
S1130D20CF911F910F91FF90EF90DF90BF90AF9004
S1130D309F908F900895CF93DF93EB018F3F11F035
S1130D40411105C040E0BE0188EE93E043C081310B
S1130D5030F050EF580F503618F05FE501C050E006
S1130D60852F6CE00E945211682F74EF7603900176
S1130D701124250F311D2C30310540F4F901EE0FFB
S1130D80FF1FE05EFE4F2081318102C020E030E091
S1130D90873081F0082E02C0220F331F0A94E2F735
S1130DA0823028F0C90105966AE070E00CC0C901E0
S1130DB090580CC0C90136E0880F991F3A95E1F7A5
S1130DC0029665E070E00E945E11CB01403108F0AC
S1130DD04FE0BE010E94DF05DF91CF910895A2E0AC
S1130DE0B0E0E5EFF6E00C94EB1190900A018091ED
S1130DF06801882321F060916701611117C077248D
S1130E007394B0ECAB2EBDE5BB2E1AE0612E04E06A
S1130E10802E80EDC82E87E0D82E94E0E92EF12CA8
S1130E2004EF11E02FE0422E512C15C070E040E099
S1130E3088EE93E00E94DF051092670117C18636A1
S1130E40D4F5813609F4A9C07CF58C3309F460C06B
S1130E508E3381F493940E94830520916401309130
S1130E6065012F5F3F4F3093650120936401853600
S1130E7031F752C0813209F08BC080920A01D092BE
S1130E800901C0920801F0920701E0920601109353
S1130E900501009304015092030140920201109253
S1130EA06801A4E09A2ED7CF8336A1F10CF478C060
S1130EB010E082E077C08D36C1F194F4873691F169
S1130EC074F18C3609F064C00E94A005BC019093B3
S1130ED0070180930601809108019091090151C096
S1130EE08237C9F14CF48F3609F052C00E94A00534
S1130EF0982E80930A01AFCF843781F1863709F0A9
S1130F0047C00E94A0059093030180930201A3CFE0
S1130F109A94A1CF10E020C010E084E043C010E018
S1130F2085E040C010E087E03DC00E9483058C3618
S1130F3019F41092680104C070926801109267015C
S1130F4020916401309165012F5F3F4F309365011B
S1130F502093640180CF11E080E024C00E94A005AA
S1130F60BC01C5010E945E11669EC001679E900D82
S1130F7011249093090180930801609106017091F6
S1130F8007010E945E11709305016093040163CF11
S1130F90109265011092640169C010E089E002C0FA
S1130FA010E08BE0082F9CE0999E000D11240E9414
S1130FB08305982F977F933261F4209164013091D7
S1130FC065012F5F3F4F30936501209364010F5FEC
S1130FD0EECF8D3271F420916401309165012F5F61
S1130FE03F4F309365012093640101500E948305B3
S1130FF0F0CF60910401709105018153883050F461
S1131000E0900801F09009010E94A005BC01C7010D
S11310100E945E117B01F694E79469837A830E94AF
S1131020830569817A818E3269F42091640130915B
S113103065012F5F3F4F30936501209364016E0D6E
S11310407F1DE9CF80916801882339F09B01369593
S1131050279520936701621B7109409102011123B6
S113106011F08FEF01C0802F0E949B062296E0E1D1
S11310700C9407121F920F920FB60F9211242F9304
S11310803F934F935F936F937F938F939F93AF930C
S1131090BF93EF93FF9380916B0190916C019C013E
S11310A02150310930936C0120936B01892B11F588
S11310B010926F00789480918100887F8160809382
S11310C0810080E197E290938900809388001092D8
S11310D08B0010928A0081E080930B01809164015F
S11310E090916501892B31F080916A01811102C0D0
S11310F00E94EF06FF91EF91BF91AF919F918F9165
S11311007F916F915F914F913F912F910F900FBEFF
S11311100F901F90189580910B01882349F081E06E
S11311202091640130916501232B19F480E0089526
S113113081E008950E948B08089510926F009093A7
S113114065018093640110926901109267010E9405
S1131150EF0608950E949D08089510926F009093E1
S113116065018093640181E08093690110926701B5
S11311700E94EF0608950E94AD08089581E090E072
S11311806F9364E06A95F1F76F910197C9F7089539
S11311900F931F93CF93DF931AB157985A98289AB5
S11311A0C0E0D0E00E94BE085C9A0E94BE0809B16B
S11311B05C980E94BE085C9A0E94BE085C982496C3
S11311C007FF10C0AE0160E070E080916D01909166
S11311D06E01A0916F01B0917001481759076A0719
S11311E07B0700F31AB9DF91CF911F910F910895F6
S11311F095B1282F217030E0220F331F482F4670FD
S113120068E0469FA0011124242B9D7C292B25B93D
S11312109BB188708295807F9F77892B8BB95C9A6C
S11312200E94BE085C980E94BE080895A0E0B0E049
S1131230ECE1F9E00C94F411C82FD62EE42E809141
S11312409C02811105C081E080939C020E94860962
S11312500E94C80814B1D5B1FAB00BB12898DD20AA
S113126011F05A9A01C05A9894B1926394B9579A5A
S113127081E0E81629F08C2F82958F700E94F8087F
S11312808C2F8F700E94F808FAB80BB914B9D5B92D
S1131290CDB7DEB7E7E00C94101242E060E00E94A4
S11312A01609089542E061E00E9416090895A1E03C
S11312B0B0E0EDE5F9E00C94F5118C01660F660FD2
S11312C0660FE12CF12C8E2D860F806469830E94B9
S11312D04D09F801EE0DFF1D84910E9452098FEF14
S11312E0E81AF80A6981E8E0EE16F10461F721963C
S11312F0E6E00C9411120E94570908950E945209C5
S1131300089541E060E00E941609089580E197E2A3
S1131310A0E0B0E080936D0190936E01A0936F0103
S1131320B0937001529A209A549A8EE190E00E94F0
S1131330CA0B83E00E94810986E090E00E94CA0BF8
S113134083E00E94810982E090E00E94CA0B83E05E
S11313500E94810982E090E00E94CA0B82E00E9410
S1131360810982E090E00E94CA0B88E20E944D0944
S113137088E00E944D0981E00E944D0986E00E94A8
S11313804D098CE00E944D09089581E00E944D09A9
S11313908091730190917401892BF9F060E0A0E2CF
S11313A0262F30E070910C0180910D0190E001979F
S11313B0789FA001799F500D1124241735074CF410
S11313C0E0917301F0917401E20FF31FA0836F5F4A
S11313D0E7CF109271011092720108950E94C5091D
S11313E00895CF93DF93EC018991882319F00E942B
S11313F05209FACFDF91CF9108950E94F10908951F
S1131400CF93DF93EC01FE018491882321F00E94A5
S113141052092196F8CFDF91CF9108950E94000AD6
S11314200895AAE0B0E0E7E1FAE00C94F3111AE0C1
S11314305AE0C52ED12CE12CF12C062FA7019601E0
S11314400E948611CA01B9011150E1E0F0E0EC0FED
S1131450FD1FE10FF11D005D2AE0629F00191124B8
S11314600083611571058105910539F71A3058F427
S1131470E1E0F0E0EC0FFD1FE10FF11D80810E941F
S113148052091F5FF3CF2A96E8E00C940F12CF9213
S1131490DF92EF92FF926B017C0197FF0BC0F094F7
S11314A0E094D094C094C11CD11CE11CF11C8DE2C9
S11314B00E945209C701B6010E94110AFF90EF90E1
S11314C0DF90CF9008950E94470A0895A5E0B0E008
S11314D0ECE6FAE00C94F811182F80E8898380EC8C
S11314E08A8384E98B8384ED8C83FE01E60FF11DEE
S11314F08181810F6D830E944D09109371016D816B
S1131500609372012596E3E00C9414120E94660A1B
S11315100895883058F491E001C0990F8A95EAF74C
S1131520892FAAE2B0E0EBE2F0E021C08E3060F453
S113153098EF980F81E001C0880F9A95EAF7A4E22A
S1131540B0E0E5E2F0E013C0853160F492EF980F6B
S113155081E001C0880F9A95EAF7A7E2B0E0E8E2DB
S1131560F0E005C080E0A0E0B0E0E0E0F0E06F3F34
S113157019F49081982709C0662319F09081982B5B
S113158004C02081982F9095922390839C91982B4E
S11315909C93089583EF8093B00084BD82E0809390
S11315A0B10085BD1092B4001092B30018BC17BCF2
S11315B060E086E00E94890A60E085E00E94890A72
S11315C060E08BE00E94890A60E083E00E94890A5F
S11315D0089580919D02811105C081E080939D0250
S11315E00E94CA0A0895CF93DF93EC010E94E90A8E
S11315F0D7FF05C0D195C195D10981E001C080E034
S1131600CF3FD10519F014F0CFEFD0E0882319F0C3
S113161018BCC7BD02C0C8BD17BCDF91CF910895E7
S1131620CF93DF93EC010E94E90AD7FF05C0D1955F
S1131630C195D10981E001C080E0CF3FD10519F007
S113164014F0CFEFD0E0882329F01092B400C093B7
S1131650B30004C0C093B4001092B300DF91CF91E3
S11316600895CF93DF93EB010E94F30ACE010E9409
S1131670100BDF91CF9108950E94310B089584B12E
S11316808D7C84B985B1826385B985E090E06F93E0
S113169064E06A95F1F76F910197C9F70895809115
S11316A09E02811105C081E080939E020E943F0B3F
S11316B00895CF93C82F0E944F0B83B18C23E9F375
S11316C08AE090E00E94CA0B83B18C23B1F383B10A
S11316D08C23CF9108950E94590B0895A1E0B0E0A6
S11316E0E4E7FBE00C94F91189830E944F0B93B15A
S11316F09095898189232196E2E00C9415120E9429
S11317006E0B08952F928F939F932FB680917C0137
S113171090917D01019680937C0190937D0190E0EE
S113172080917E01891F80937E01909176019C5F58
S1131730909376018091750180519742C0F0909307
S113174076018093750180917701909178010196DB
S1131750809377019093780190E080917901891FBB
S11317608093790180917A01891F80937A012FBE39
S11317709F918F912F90189528EE33E0019748F0B0
S1131780F9016F9364E06A95F1F76F913197C9F7A6
S1131790F5CF08950E94BC0B0895E0E7F0E0808146
S11317A08E7F8083A0EBB0E08C9183608C93A1EB5F
S11317B0B0E08C91807F8C938C9182608C93B89AEA
S11317C08081816080837894089580919F02811143
S11317D005C081E080939F020E94CD0B08950E9472
S11317E0E50BE0E7F0E080818E7F80831092770143
S11317F0109278011092790110927A011092760178
S1131800109275018081816080830895682F8FE72D
S113181091E00E94EE0F0895462F20E0BC018FE76F
S113182091E00E94BF1008950F93CF93DF9300D0EF
S113183000D01F92CDB7DEB79C0185E0E8E3F1E06C
S1131840DE01119601900D928A95E1F7662311F05D
S11318500FEF01C003E145E0BE016F5F7F4F8FE7EB
S113186091E00E94E60C8FE791E00E94BD0C0E947B
S1131870EF0B0F900F900F900F900F90DF91CF917F
S11318800F91089560E00E94140C08958FE791E091
S11318900E94341108956F9364E06A95F1F76F9193
S11318A00197C9F70895FC011182108213821282F4
S11318B0158214821682683068F489E290E091837C
S11318C080838BE290E0938382838AE290E0958325
S11318D084831FC06E3070F483E290E09183808330
S11318E085E290E09383828384E290E0958384830D
S11318F068500FC0653198F486E290E0918380834C
S113190088E290E09383828387E290E095838483E6
S11319106E5081E001C0880F6A95EAF786830895C6
S1131920A7E0B0E0E6E9FCE00C94F7118C01FC01BF
S113193011821082138212821582148217821682F7
S1131940613118F080E1808702C0FC016087F801F2
S1131950208B642FCE0101960E94530C8F81F801D5
S113196081878B819C81938782878D819E819587D6
S113197084872796E4E00C941312FC01A485B585B2
S1131980109779F08C919185892B8C93A285B385DE
S11319909C918185809589238C9388EC90E00E94AA
S11319A04B0C0895FC01A485B585109771F08C91BA
S11319B09185892B8C93A285B3858C919185892BF4
S11319C08C9388EC90E00E944B0C0895A7E0B0E063
S11319D0ECEEFCE00C94EC117C014B01642F39011A
S11319E0402F20E00E94900C87010F5B1F4FF801ED
S11319F010826701F2E4CF0ED11CF6011082570168
S1131A00F3E4AF0EB11CF5011082F7017786668608
S1131A10512CF7018085581650F5652C712CF40172
S1131A20E60DF71D6081CE0101960E94530C2F81B3
S1131A30F701E60DF71D218B89819A81F301EE0FE1
S1131A40FF1FEE0DFF1D92A381A38332910511F4B4
S1131A50F80108C08632910511F4F60103C0899794
S1131A6021F4F5018081822B80835394D2CF279671
S1131A70EFE00C940812A0E0B0E0E1E4FDE00C9487
S1131A80EE11EC015B016C0181E4C80ED11CF6017E
S1131A9080807E01F2E4EF0EF11CF70170808E016C
S1131AA00D5B1F4FF801908080E09885891748F4FA
S1131AB0F501E80FF11DE80FF11D118210828F5F0F
S1131AC0F4CF84B1F6019081892B84B987B1F701F1
S1131AD09081892B87B98AB1F8019081892B8AB9C1
S1131AE085B1F6019081892B85B988B1F701908180
S1131AF0892B88B98BB1F8019081892B8BB98AE045
S1131B0090E00E944B0C94B1F6018081809589236A
S1131B1084B997B1F70180818095892387B99AB1F7
S1131B20F8018081809589238AB995B1F601808175
S1131B308095892385B998B1F7018081809589239F
S1131B4088B99BB1F8018081809589238BB9E09095
S1131B50B000D090B1008091B00083608093B00059
S1131B6082E08093B1004091B20080E090E02E8545
S1131B703F858217930720F5C090B2002C2D241BBB
S1131B80820F911D03B1081132C0F6B0F7102FC0B7
S1131B9029B129112CC010C0212F30E0A901440F14
S1131BA0551FF501E40FF51F60817181672B21F149
S1131BB01F5F2885121780F37F2C802E4C2DD7CFE2
S1131BC0E092B000D092B10020E08885281730F56B
S1131BD0F501E20FF11DE20FF11D80819181892B46
S1131BE021F48E859F85918380832F5FEECF03B18F
S1131BF0F6B099B010E0DDCFDE01A40FB51F9196C9
S1131C000D90BC91A02D4C91DE01A20FB31F5196F3
S1131C102C91422369F691838083CACFCDB7DEB776
S1131C20EDE00C940A12EF92FF920F931F93CF935F
S1131C30DF93FC019B01F0907C0000917A0047B196
S1131C4018B180917A0086FDFCCF80E090858917D9
S1131C5048F4D901A80FB11DA80FB11D1D921C9203
S1131C608F5FF4CF97B182A18095892387B998B10A
S1131C7082A18095892388B987E880937A00E12C32
S1131C8081A1E81610F0E12C29C050E08085581796
S1131C9018F5A52FB0E0EF01CA0FDB1F8989806416
S1131CA080937C0080917A00806480937A00809194
S1131CB07A0086FDFCCF6091780070917900AA0FBC
S1131CC0BB1FA20FB31F8D919C911197860F971F75
S1131CD08D939C935F5FDACFE394D2CF8085E8162F
S1131CE0A0F4E901CE0DD11DCE0DD11D61A170E08E
S1131CF0CB0195958795A881B9818A0F9B1F0E9476
S1131D005E1179836883E394E9CFF0927C000093B9
S1131D107A0018B947B9CDB7DEB7E6E00C941112D2
S1131D20A0E2B0E0E6E9FEE00C94F4118C017B0142
S1131D30D42E8FEF840F823018F4C8010E94D20C85
S1131D40D80150968C91B701811110C0C8010E942E
S1131D503B0DC8010E94BD0CB2E0DB123AC0BE01CB
S1131D606F5F7F4FC8010E943B0D0FC0C8010E94E6
S1131D70130EC8010E94BD0CE2E0DE122AC0BE01AF
S1131D806F5F7F4FC8010E94130E40E0F801808509
S1131D904817F8F4842F90E0880F991FF701E80F93
S1131DA0F91F21E030E02C0F3D1F820F931FD80153
S1131DB01E962D913C911F97DC018D919C91281BBF
S1131DC0390B80819181820F931F918380834F5FB0
S1131DD0DDCFA096E7E00C9410122F923F925F9211
S1131DE06F927F928F929F92AF92BF92CF92DF9227
S1131DF0EF92FF920F931F93CF93DF93CDB7DEB78C
S1131E00C056D1090FB6F894DEBF0FBECDBF8C010A
S1131E104B015A01522EDA018D919C91892B31F09C
S1131E20F40180819181892BF1F424C0D8011896A2
S1131E308C9190E0880F991F0E942612F5019183DE
S1131E408083009709F4B1C0FC0120E030E0D801A0
S1131E5018968C9190E02817390714F71192119273
S1131E602F5F3F4FF4CFE12CF12C6E01B1E2CB0E8A
S1131E70D11C21C0F801808590E0880F991F0E9431
S1131E802612D4018D939C93009709F48EC0FC0113
S1131E9020E030E0D80118968C9190E0281739079B
S1131EA014F7D8011E968D919C911F97819391935D
S1131EB02F5F3F4FEFCF452DBE016F5B7F4FC801B2
S1131EC00E94900EF8016084712CFE01EF5BFF4FBD
S1131ED0C6019E012F5F3F4F190120E030E0261517
S1131EE037054CF5E114F10489F0DC016D917C9126
S1131EF0408151816417750748F0D1016D917C913F
S1131F00408151814617570748F00DC040815181E7
S1131F10DC014D935C93E114F10479F74081518124
S1131F20D1014D935C932F5F3F4FB2E02B0E311CD8
S1131F3032960296D4CFEFEFEE1AFE0AFAE0EF16CD
S1131F40F10409F0B8CF9E012F5F3F4F79013601AC
S1131F5080E090E0F801208530E0821793072CF5AB
S1131F60D7012D913D917D01B3016C197D09D501F6
S1131F70ED91FC91E60FF71F408151814217530701
S1131F8010F431832083F301219131913F01D40175
S1131F90ED91FC91E60FF71F40815181241735071D
S1131FA010F4318320830196D5CFC05ADF4F0FB68A
S1131FB0F894DEBF0FBECDBFDF91CF911F910F917B
S1131FC0FF90EF90DF90CF90BF90AF909F908F9055
S1131FD07F906F905F903F902F9008951F93CF93C1
S1131FE0DF93EC01162F8FEF860F823018F06623F3
S1131FF059F014C021E0AE014E5F5F4FBE01CE0127
S11320000E94ED0E123051F4AE014A5F5F4FBE01E3
S11320106C5F7F4F20E0CE010E94ED0EDF91CF91E7
S11320201F910895A0E0B0E0E8E1F0E10C94F21112
S1132030EC018B01B42E842F8D7F51F48C819D8112
S1132040892B09F497C08E819F81892B09F492C052
S11320508FEF8B0D823050F488819981892B09F49C
S113206089C08A819B81892B09F484C04B2DB801D6
S1132070CE010E94900E780100E010E0C12CD12C1A
S1132080888590E0C816D9060CF074C081E0B812B7
S11320900AC0EA81FB81E00FF11F0190F081E02D7D
S11320A0A881B9810DC08C819D812E813F81B110A1
S11320B00CC0F901E00FF11F0190F081E02DDC016B
S11320C0A00FB11F8D919C9128C0FC01E00FF11F5E
S11320D040815181E881F981E00FF11F8081918174
S11320E0EE85FF854817590710F4CF0104C08E0F01
S11320F09F1F841B950BD901A00FB11F2D913C91FB
S1132100AA81BB81A00FB11F4D915C9124173507A3
S113211020F0E40FF51FE21BF30BE81BF90BA9F009
S1132120D7012D913C9140E050E0281B390B410927
S11321305109A8EEB3E00E94D6119F0140E050E09F
S11321400E94A81137FD0AC002C020E030E0293EF9
S1132150B3E03B072CF028EE33E002C020E030E08F
S1132160F701219331937F01FFEFCF1ADF0A0E5F4E
S11321701F4F86CFCDB7DEB7E9E00C940E12A0E076
S1132180B0E0E5ECF0E10C94E911EC018B01822E56
S11321900E9412102884E801412C512C320100E0E5
S11321A010E0C12CD12C7601312C912C58EEA52EA7
S11321B053E0B52E921421F1E991F991882021F090
S11321C0C5018E1B9F0BFC01E93CF10524F4E333AC
S11321D0F10574F002C033243394DF01A3019201AA
S11321E00E94E111C60ED71EE81EF91E0E0F1F1F16
S11321F0939498EE490E93E0591E611C711CDACF3A
S113220031101EC0492D50E04150510924EF31E0F6
S1132210429FC001439F900D529F900D1124209125
S1132220C3013091C40128173907B4F088EE93E054
S1132230489F9001499F300D589F300D11240EC0C6
S1132240980140E050E0C701B6010E948611309326
S1132250C4012093C30102C020E030E0C901CDB71E
S1132260DEB7E2E10C940512CF93DF93EC018A818F
S11322709B81009711F00E94BB128E819F81009771
S113228011F00E94BB1288819981009711F00E947D
S1132290BB128C819D81009711F00E94BB12DF91CB
S11322A0CF910895991B79E004C0991F961708F0FF
S11322B0961B881F7A95C9F780950895AA1BBB1BA6
S11322C051E107C0AA1FBB1FA617B70710F0A61B32
S11322D0B70B881F991F5A95A9F780959095BC0153
S11322E0CD01089597FB072E16F4009407D077FDCF
S11322F009D00E945E1107FC05D03EF490958195AB
S11323009F4F0895709561957F4F0895A1E21A2E0D
S1132310AA1BBB1BFD010DC0AA1FBB1FEE1FFF1F85
S1132320A217B307E407F50720F0A21BB30BE40BD5
S1132330F50B661F771F881F991F1A9469F760951C
S11323407095809590959B01AC01BD01CF010895D6
S1132350052E97FB1EF400940E94BF1157FD07D071
S11323600E94861107FC03D04EF40C94BF115095C3
S11323704095309521953F4F4F4F5F4F089590956D
S11323808095709561957F4F8F4F9F4F0895A29FC1
S1132390B001B39FC001A39F700D811D1124911D35
S11323A0B29F700D811D1124911D08950E94C711C3
S11323B0A59F900DB49F900DA49F800D911D112495
S11323C00895B7FF0C94D6110E94D611821B930B6B
S11323D008952F923F924F925F926F927F928F92C5
S11323E09F92AF92BF92CF92DF92EF92FF920F93A0
S11323F01F93CF93DF93CDB7DEB7CA1BDB0B0FB6AA
S1132400F894DEBF0FBECDBF09942A883988488866
S11324105F846E847D848C849B84AA84B984C884FC
S1132420DF80EE80FD800C811B81AA81B981CE0FF3
S1132430D11D0FB6F894DEBF0FBECDBFED010895D8
S1132440EE0FFF1F0590F491E02D0994CF93DF93D5
S11324508230910510F482E090E0E0917E03F091E7
S11324607F0320E030E0C0E0D0E0309711F14081FC
S1132470518148175907C0F04817590761F4828100
S11324809381209719F09B838A832BC090937F03B9
S113249080937E0326C02115310519F04217530796
S11324A018F49A01BE01DF01EF010280F381E02DEF
S11324B0DCCF2115310509F1281B390B24303105F6
S11324C090F412968D919C9113976115710521F0EA
S11324D0FB019383828304C090937F0380937E03E4
S11324E0FD01329644C0FD01E20FF31F81939193E5
S11324F0225031092D933C933AC020917C033091B2
S11325007D03232B41F4209110013091110130936C
S11325107D0320937C0320910E0130910F0121153E
S1132520310541F42DB73EB740911201509113018A
S1132530241B350BE0917C03F0917D03E217F30734
S1132540A0F42E1B3F0B2817390778F0AC014E5F1F
S11325505F4F2417350748F04E0F5F1F50937D03DC
S113256040937C038193919302C0E0E0F0E0CF01BB
S1132570DF91CF9108950F931F93CF93DF9300972B
S113258009F48CC0FC0132971382128200917E03FD
S113259010917F030115110581F420813181820F8F
S11325A0931F20917C0330917D032817390779F517
S11325B0F0937D03E0937C0371C0D80140E050E0C8
S11325C0AE17BF0750F412962D913C911397AD01AD
S11325D02115310509F1D901F3CF9D01DA013383C6
S11325E0228360817181860F971F8217930769F494
S11325F0EC0128813981260F371F2E5F3F4F31832D
S113260020838A819B8193838283452B29F4F093D1
S11326107F03E0937E0342C01396FC93EE931297DC
S1132620ED01499159919E01240F351FE217F307DB
S113263071F480819181840F951F029611969C9369
S11326408E938281938113969C938E931297E0E0EC
S1132650F0E0D80112968D919C911397009719F090
S1132660F8018C01F6CF8D919C9198012E5F3F4F1C
S1132670820F931F20917C0330917D032817390723
S113268069F4309729F410927F0310927E0302C0FC
S11326901382128210937D0300937C03DF91CF9108
S11326A01F910F91089510E0C5E5D0E004C0FE012C
S11326B00E9420122196C635D107C9F7F894FFCF9E
S11326C088130F00F4010400D0070401080200007D
S11326D0800320000500200000010203040506FF1A
S11326E09C01B501CF01EA010702260247026902F3
S11326F08E02B502DE020A030E0F1011126D56008F
S11327005072657373204200476F21003E3E61336F
S113271032005265636F72646564210048657265B6
S107272020776500B5
S9030000FC
