S01600003370692D6D617A65736F6C7665722E737265638D
S11300000C9450000C946D000C946D000C946D00D5
S11300100C946D000C946D000C946D000C946D00A8
S11300200C946D000C947D0B0C946D000C946D007D
S11300300C946D000C9435080C946D000C946D00B8
S11300400C946D000C946D000C946D000C946D0078
S11300500C946D000C946D000C946D000C946D0068
S11300600C946D000C946D00000000000000001F53
S11300701F1F1F1F1F1F3E6733323E3E6333320074
S1130080736F6C766572004D617A650033F72052A8
S11300906F626F7400205061636D616E0000410CEB
S11300A011241FBECFEFD8E0DEBFCDBF11E0A0E02A
S11300B0B1E0E6EBF6E202C005900D92A43CB10774
S11300C0D9F723E0A4ECB1E001C01D92A03EB20731
S11300D0E1F70E943F020C944E130C94000060E080
S11300E088E690E00E94760961E089E690E00E944B
S11300F0760962E08AE690E00E94760963E08BE686
S113010090E00E94760964E08CE690E00E94760913
S113011065E08DE690E00E94760966E08EE690E068
S11301200E9476090C94E909BF92CF92DF92EF9274
S1130130FF920F931F93CF93DF93CDB7DEB72A9728
S11301400FB6F894DEBF0FBECDBF8C017C018AE0F0
S1130150E80EF11C8AE0B82E95E6C92ED12CE6E112
S1130160F1E0DE0111968B2D01900D928A95E1F755
S1130170F801819191918F01B6010E945911E1E03A
S1130180F0E0EC0FFD1FE60FF71F80810E94790954
S11301900E151F0521F72A960FB6F894DEBF0FBE81
S11301A0CDBFDF91CF911F910F91FF90EF90DF9022
S11301B0CF90BF9008952F923F924F925F926F928B
S11301C07F928F929F92AF92BF92CF92DF92EF92E3
S11301D0FF920F931F93CF93DF93CDB7DEB72A9788
S11301E00FB6F894DEBF0FBECDBFC12CD12C760163
S11301F0A12CB12C60E1462E67E2562E612C712CA5
S113020074E1272E312CECE38E2E912C61E0CE018B
S113021001960E94070C8C01005D1740C801012E55
S1130220000CAA0BBB0BC80ED91EEA1EFB1EC7018D
S1130230B601A30192010E94A311F801EA19FB0976
S1130240CF01880F991F8E0F9F1F97FD01969595DB
S11302508795280F391FC801B1010E946D11C9018A
S1130260860F971F8D3391056CF4843C2FEF920712
S11302701CF097FD03C008C084EC9FEF6CE370E0B2
S1130280CC9607C08CE390E0B401681B790B8CE337
S113029090E00E94370B8B819C818D32914050F00D
S11302A08D819E818D32914028F08F8198858D3289
S11302B0914088F489819A81883C910528F0898548
S11302C09A85883C910528F48DE391E00E94A50865
S11302D002C058019BCF2A960FB6F894DEBF0FBE1A
S11302E0CDBFDF91CF911F910F91FF90EF90DF90E1
S11302F0CF90BF90AF909F908F907F906F905F90C2
S11303004F903F902F9008950F931F93CF93DF93B7
S1130310CDB7DEB72A970FB6F894DEBF0FBECDBFB8
S113032080ED97E00E943D0C0E946F0085E990E00B
S11303300E94090A61E080E00E94810A8CE890E052
S11303400E94090A86E790E00E94B60888EE93E0CE
S11303500E94C50B0E94E90987E890E00E94090AFF
S113036061E080E00E94810A80E890E00E94090A2E
S113037088EE93E00E94C50B80E10E947A0B811104
S11303801AC00E947B058C010E94E909B801110F73
S1130390880B990B0E945E0A83E491E00E94F8099D
S11303A061E080E00E94810A86E491E00E94F809FD
S11303B084E690E0DFCF80E10E94660B88EE93E054
S11303C00E94C50B0CEE1FEF0832110528F068EDF2
S11303D07FEF88E290E004C068E270E088ED9FEF70
S11303E00E94370B81E00E94010C84E190E00E949E
S11303F0C50B0F5F1F4F0C33110531F760E070E040
S113040080E090E00E94370B80E10E947A0B81111A
S11304101AC061E0CE0101960E94070C8C010E9473
S1130420E909B80180E090E00E945E0A61E080E0A2
S11304300E94810ACE0101960E94940084E690E015
S11304400E94C50BE1CF80E10E94660B0E94E9097E
S11304508EE491E00E94F80982E591E00E94A508EB
S11304600E9495088111FCCF2A960FB6F894DEBF3E
S11304700FBECDBFDF91CF911F910F9108950E94C0
S113048084010E94B802FFCF811106C0611106C029
S1130490411106C082E408958CE4089583E508952B
S11304A082E50895882339F0442361F061110FC077
S11304B083E390E00895442369F0662359F082E3CE
S11304C090E00895662331F081E390E0089584E399
S11304D090E0089580E390E008954091270243302E
S11304E008F445C0242F30E0285D3D4FF9013297D0
S11304F080818234E1F5F90161E070E080E090E010
S113050052915C3451F0523529F0523441F48C54F8
S11305109F4F05C0865A9F4F02C0825F9E4F6F5FF8
S11305207F4F6430710561F768E671E00E946D11D8
S11305308A35910589F034F4892BB1F4F9013397A4
S113054083E511C0843B910559F08E30914061F4EC
S1130550F90133978CE407C0F901339782E503C0AE
S1130560F901339782E4808342504093270208952F
S1130570CF93DF93CDB7DEB72B970FB6F894DEBFDA
S11305800FBECDBF0E94DB0062E370E082E390E027
S11305900E94370B82E390E00E94C50B61E0CE011C
S11305A001960E94070C01E089819A81883C91059B
S11305B008F000E0FF24F39489859A85883C91052E
S11305C008F0F12C68E270E088E290E00E94370BBA
S11305D088EC90E00E94C50B61E0CE0101960E9478
S11305E0070C2B813C818D819E81283C310558F07C
S11305F011E0883C910558F08F819885883C9105DD
S113060030F010E004C0883C910518F111E04F2D42
S1130610612F802F0E944402E82E4F2D612F802FDE
S11306200E9452028C018E2D0E948B04909197029D
S1130630292F30E0F901E856FD4FE082220F331FE5
S1130640F901EC5EFC4F118300839F5F9093970246
S113065099CF8F819885883C9105C0F604E610E017
S113066010928C0260E070E080E090E00E94370B12
S11306708CEA91E00E94A50880E10E947A0B811126
S113068013C00E94E90982EB91E00E94F80961E03D
S113069080E00E94810A86E491E00E94F8098EE1DC
S11306A090E00E94C50BE8CF80E10E947A0B88237A
S11306B099F00E94E9098CEB91E00E94F80961E04D
S11306C080E00E94810A8EE491E00E94F80988EE9D
S11306D093E00E94C50BE8CFE12CF12C0E94DB00D3
S11306E062E370E082E390E00E94370B82E390E0E3
S11306F00E94C50B61E0CE0101960E94070CDD2427
S1130700D39489819A81883C910508F0D12CCC241A
S1130710C39489859A85883C910508F0C12C68E2C8
S113072070E088E290E00E94370B88EC90E00E9431
S1130730C50B61E0CE0101960E94070C8B819C8160
S1130740883C910568F08D819E81883C910540F03C
S113075091E02F813885283C310518F090E001C0E4
S113076091E04C2D692F8D2D9B870E944402B82E59
S11307704C2D9B85692F8D2D0E9452026C018B2D6F
S11307800E948B0490918C02292F30E0F901E357E9
S1130790FD4FB082220F331FF901E050FD4FD1828B
S11307A0C0829F5F82E4B81619F0EFEFEE1AFE0ADA
S11307B090938C02F4E0EF16F1040CF48FCF2091A7
S11307C08C0230E06801C21AD30AA0901401B090E0
S11307D0150140E050E04C155D056CF580E090E0BB
S11307E07A01E20EF31E24C0BA01680F791FDB01FF
S11307F0A856BD4FFC01E357FD4FF081EC91FE1369
S113080026C0DC01AA0FBB1FA050BD4F660F771F87
S1130810FB01EC5EFC4F6D917C910190F081E02D29
S11308206E177F07A1F401968217930709F4570105
S113083082179307CCF24F5F5F4F4436510559F648
S1130840A0921401B0921501E12CF12C03C084E6AE
S113085090E0EACF80911401909115019801281B32
S1130860390BE216F306BCF420912702E22FF0E0E4
S1130870E85DFD4FA70148565D4FDA01A80FB91F87
S11308808C9180832F5F209327020E946D028FEF4B
S1130890E81AF80ADFCF88E2E82E82E0F82E809189
S11308A0270290E0970128523240281739070CF0AC
S11308B0D7CE0E94DB0062E370E082E390E00E9406
S11308C0370B82E390E00E94C50B68E270E088E297
S11308D090E00E94370B88EC90E00E94C50BF70172
S11308E081917F010E948B0461E0CE0101960E94F8
S11308F0070C8B819C81883C910588F68D819E81B3
S1130900883C910560F68F819885883C910538F67E
S113091010922702C4CF8C3469F0823581F082347E
S1130920C1F460EB7FEF80E590E00E94370B80E933
S113093091E00DC060E570E080EB9FEF04C060EBD8
S11309407FEF80E590E00E94370B88EC90E00C94F8
S1130950C50B0895ECE7F0E080818F7D80830895D6
S1130960811103C00E94AA04089580917C008062D2
S113097080937C00089580917C0085FB882780F912
S113098008950E94BB04882321F08091790090E0AF
S11309900895809178009091790008958032A0F4B0
S11309A097E890937A0090917C00662311F0906C04
S11309B002C09F779064907E982B90937C008091E6
S11309C07A00806480937A000895A0E0B0E0EBEEB2
S11309D0F4E00C94EE11EB0160E00E94CE048091EF
S11309E07A0086FDFCCF8E01C12CD12C760180913A
S11309F07A00806480937A0080917A0086FDFCCF2F
S1130A000E94C104C80ED91EE11CF11C0150110939
S1130A100115110561F7CE0196958795C034D1056E
S1130A2038F48C0D9D1DBE010E945911CB010EC0DE
S1130A30A7019601280F391F411D511DCA01B90193
S1130A409E0140E050E00E948111C901CDB7DEB79C
S1130A50E8E00C940A12CF92DF92EF92FF92A091F9
S1130A600001B09101019C010E94C2116B017C0143
S1130A700E94BB04882359F0C701B60161587F4F17
S1130A808F4F9F4F2FEF30E040E050E00AC0C70186
S1130A90B60161507E4F8F4F9F4F2FEF33E040E000
S1130AA050E00E948111C901FF90EF90DF90CF9038
S1130AB008950E94E5040E942B0508951F93CF9387
S1130AC0DF930E94BB04182F0E94AA046AE070E01E
S1130AD086E00E945905EC01812F0E94B004CE01EA
S1130AE0880F991F8C0F9D1F019696958795DF910E
S1130AF0CF911F9108950E945E0508959091C901B8
S1130B00E091C401F091C501992311F0849101C0D1
S1130B1080812FEB280F2A3110F4805E08958032F3
S1130B2049F49F012F5F3F4F3093C5012093C401C7
S1130B30EF2B31F708951F93CF93DF930E947E0527
S1130B40C0E0D0E01AE090ED980F9A30B8F49E011E
S1130B50129FE001139FD00D1124C80FD11D87FDF2
S1130B60DA95E0978091C4019091C5010196909324
S1130B70C5018093C4010E947E05E5CFCE01DF91BB
S1130B80CF911F91089510926F0083E280938000AB
S1130B9081E1809381001092820080E197E290933A
S1130BA089008093880010928B0010928A00229A08
S1130BB0789408958F929F92AF92BF92DF92EF92B2
S1130BC0FF920F931F93CF93DF935C018B01D42E7D
S1130BD08091C601811105C081E08093C6010E9405
S1130BE0C30510920B01B7FE05C0E894B7F82AE0DC
S1130BF0F22E02C0FF24F394E09081002E2D287F72
S1130C00E22E48ECF49EC00111248A159B05E0F401
S1130C10E50151E1A51657E2B50610F0C0E1D7E2AF
S1130C20BE017695679580E090E0605879468746E6
S1130C309F4F4E01A12CB12CA50194010E9481115A
S1130C4059018E2D816024C0C8E2FC9EC02D112460
S1130C50D0E0CA15DB0508F4E501BE017695679579
S1130C609E0140E050E08AE0F81207C080E090E086
S1130C70605E734481449F4F06C080E090E06053FF
S1130C807D4E8C4E9F4F0E94811159018E2D8260A2
S1130C90882E2AE0F21207C0CE0105966AE070E0C1
S1130CA00E945911EB01C83E43E0D40759F0980162
S1130CB0DE010E94C21128EE33E040E050E00E94C1
S1130CC0A311890110926F0080928100B092890073
S1130CD0A092880020918800309189004D2D4031E8
S1130CE008F04FE080E190E0841B9109A90102C063
S1130CF0569547958A95E2F750938B0040938A0066
S1130D001093CC010093CB0186B38FEF86BB81E0B7
S1130D1080936F00DF91CF911F910F91FF90EF901F
S1130D20DF90BF90AF909F908F900895CF93DF9303
S1130D30EB018F3F11F0411105C040E0BE0188EE88
S1130D4093E043C0813130F050EF580F503618F023
S1130D505FE501C050E0852F6CE00E944D11682FC3
S1130D6074EF760390011124250F311D2C303105C9
S1130D7040F4F901EE0FFF1FE05EFE4F2081318148
S1130D8002C020E030E0873081F0082E02C0220F3C
S1130D90331F0A94E2F7823028F0C90105966AE00D
S1130DA070E00CC0C90190580CC0C90136E0880F2E
S1130DB0991F3A95E1F7029665E070E00E94591197
S1130DC0CB01403108F04FE0BE010E94DA05DF910B
S1130DD0CF910895A2E0B0E0E0EFF6E00C94E611C4
S1130DE090900A018091C801882321F06091C70185
S1130DF0611117C077247394B0ECAB2EBDE5BB2E04
S1130E001AE0612E04E0802E80EDC82E87E0D82EF3
S1130E1094E0E92EF12C04EF11E02FE0422E512C46
S1130E2015C070E040E088EE93E00E94DA0510926D
S1130E30C70117C18636D4F5813609F4A9C07CF5FB
S1130E408C3309F460C08E3381F493940E947E0540
S1130E502091C4013091C5012F5F3F4F3093C501EC
S1130E602093C401853631F752C0813209F08BC01A
S1130E7080920A01D0920901C0920801F092070100
S1130E80E0920601109305010093040150920301BE
S1130E90409202011092C801A4E09A2ED7CF833663
S1130EA0A1F10CF478C010E082E077C08D36C1F176
S1130EB094F4873691F174F18C3609F064C00E9481
S1130EC09B05BC0190930701809306018091080162
S1130ED09091090151C08237C9F14CF48F3609F061
S1130EE052C00E949B05982E80930A01AFCF84378D
S1130EF081F1863709F047C00E949B059093030156
S1130F0080930201A3CF9A94A1CF10E020C010E0F7
S1130F1084E043C010E085E040C010E087E03DC0BD
S1130F200E947E058C3619F41092C80104C0709298
S1130F30C8011092C7012091C4013091C5012F5FEF
S1130F403F4F3093C5012093C40180CF11E080E06E
S1130F5024C00E949B05BC01C5010E945911669ED4
S1130F60C001679E900D112490930901809308019C
S1130F7060910601709107010E9459117093050157
S1130F806093040163CF1092C5011092C40169C03B
S1130F9010E089E002C010E08BE0082F9CE0999EED
S1130FA0000D11240E947E05982F977F933261F4DF
S1130FB02091C4013091C5012F5F3F4F3093C5018B
S1130FC02093C4010F5FEECF8D3271F42091C401E0
S1130FD03091C5012F5F3F4F3093C5012093C40169
S1130FE001500E947E05F0CF6091040170910501CB
S1130FF08153883050F4E0900801F09009010E9478
S11310009B05BC01C7010E9459117B01F694E7942A
S113101069837A830E947E0569817A818E3269F4BC
S11310202091C4013091C5012F5F3F4F3093C5011A
S11310302093C4016E0D7F1DE9CF8091C8018823E0
S113104039F09B01369527952093C701621B7109DE
S113105040910201112311F08FEF01C0802F0E94F3
S113106096062296E0E10C9402121F920F920FB69C
S11310700F9211242F933F934F935F936F937F931A
S11310808F939F93AF93BF93EF93FF938091CB0183
S11310909091CC019C01215031093093CC012093D3
S11310A0CB01892B11F510926F0078948091810007
S11310B0887F81608093810080E197E2909389002A
S11310C08093880010928B0010928A0081E08093B4
S11310D00B018091C4019091C501892B31F080915D
S11310E0CA01811102C00E94EA06FF91EF91BF91EB
S11310F0AF919F918F917F916F915F914F913F91AC
S11311002F910F900FBE0F901F90189580910B0197
S1131110882349F081E02091C4013091C501232B3B
S113112019F480E0089581E008950E9486080895E6
S113113010926F009093C5018093C4011092C9016D
S11311401092C7010E94EA0608950E949808089523
S113115010926F009093C5018093C40181E0809345
S1131160C9011092C7010E94EA0608950E94A808C6
S1131170089581E090E06F9364E06A95F1F76F91D0
S11311800197C9F708950F931F93CF93DF931AB173
S113119057985A98289AC0E0D0E00E94B9085C9AFF
S11311A00E94B90809B15C980E94B9085C9A0E942F
S11311B0B9085C98249607FF10C0AE0160E070E0A7
S11311C08091CD019091CE01A091CF01B091D00139
S11311D0481759076A077B0700F31AB9DF91CF91C3
S11311E01F910F91089595B1282F217030E0220F9F
S11311F0331F482F467068E0469FA0011124242B1A
S11312009D7C292B25B99BB188708295807F9F771F
S1131210892B8BB95C9A0E94B9085C980E94B90822
S11312200895A0E0B0E0E7E1F9E00C94EF11C82FD5
S1131230D62EE42E8091FC02811105C081E08093BA
S1131240FC020E9481090E94C30814B1D5B1FAB00E
S11312500BB12898DD2011F05A9A01C05A9894B124
S1131260926394B9579A81E0E81629F08C2F8295FD
S11312708F700E94F3088C2F8F700E94F308FAB8C5
S11312800BB914B9D5B9CDB7DEB7E7E00C940B129E
S113129042E060E00E941109089542E061E00E948A
S11312A011090895A1E0B0E0E8E5F9E00C94F0112B
S11312B08C01660F660F660FE12CF12C8E2D860FC4
S11312C0806469830E944809F801EE0DFF1D849132
S11312D00E944D098FEFE81AF80A6981E8E0EE16DA
S11312E0F10461F72196E6E00C940C120E94520975
S11312F008950E944D09089541E060E00E9411099B
S1131300089580E197E2A0E0B0E08093CD0190934E
S1131310CE01A093CF01B093D001529A209A549A4F
S11313208EE190E00E94C50B83E00E947C0986E078
S113133090E00E94C50B83E00E947C0982E090E06B
S11313400E94C50B83E00E947C0982E090E00E9429
S1131350C50B82E00E947C0982E090E00E94C50BEC
S113136088E20E94480988E00E94480981E00E94BE
S1131370480986E00E9448098CE00E9448090895C3
S113138081E00E9448098091D3019091D401892B76
S1131390F9F060E0A0E2262F30E070910C0180911A
S11313A00D0190E00197789FA001799F500D1124C1
S11313B0241735074CF4E091D301F091D401E20FE6
S11313C0F31FA0836F5FE7CF1092D1011092D20177
S11313D008950E94C0090895CF93DF93EC01899189
S11313E0882319F00E944D09FACFDF91CF91089517
S11313F00E94EC090895CF93DF93EC01FE018491E0
S1131400882321F00E944D092196F8CFDF91CF91D6
S113141008950E94FB090895AAE0B0E0E2E1FAE031
S11314200C94EE111AE05AE0C52ED12CE12CF12CCB
S1131430062FA70196010E948111CA01B90111501A
S1131440E1E0F0E0EC0FFD1FE10FF11D005D2AE08B
S1131450629F0019112400836115710581059105AE
S113146039F71A3058F4E1E0F0E0EC0FFD1FE10F1A
S1131470F11D80810E944D091F5FF3CF2A96E8E099
S11314800C940A12CF92DF92EF92FF926B017C01CF
S113149097FF0BC0F094E094D094C094C11CD11C6D
S11314A0E11CF11C8DE20E944D09C701B6010E94A6
S11314B00C0AFF90EF90DF90CF9008950E94420AAB
S11314C00895A5E0B0E0E7E6FAE00C94F311182FD4
S11314D080E8898380EC8A8384E98B8384ED8C8320
S11314E0FE01E60FF11D8181810F6D830E94480981
S11314F01093D1016D816093D2012596E3E00C94A1
S11315000F120E94610A0895883058F491E001C0D6
S1131510990F8A95EAF7892FAAE2B0E0EBE2F0E0AE
S113152021C08E3060F498EF980F81E001C0880FDD
S11315309A95EAF7A4E2B0E0E5E2F0E013C0853161
S113154060F492EF980F81E001C0880F9A95EAF752
S1131550A7E2B0E0E8E2F0E005C080E0A0E0B0E09F
S1131560E0E0F0E06F3F19F49081982709C066230A
S113157019F09081982B04C02081982F9095922384
S113158090839C91982B9C93089583EF8093B00053
S113159084BD82E08093B10085BD1092B4001092A6
S11315A0B30018BC17BC60E086E00E94840A60E0C7
S11315B085E00E94840A60E08BE00E94840A60E077
S11315C083E00E94840A08958091FD02811105C080
S11315D081E08093FD020E94C50A0895CF93DF93B2
S11315E0EC010E94E40AD7FF05C0D195C195D10949
S11315F081E001C080E0CF3FD10519F014F0CFEFB6
S1131600D0E0882319F018BCC7BD02C0C8BD17BC00
S1131610DF91CF910895CF93DF93EC010E94E40A08
S1131620D7FF05C0D195C195D10981E001C080E003
S1131630CF3FD10519F014F0CFEFD0E0882329F083
S11316401092B400C093B30004C0C093B4001092CD
S1131650B300DF91CF910895CF93DF93EB010E9404
S1131660EE0ACE010E940B0BDF91CF9108950E94E8
S11316702C0B089584B18D7C84B985B1826385B9BE
S113168085E090E06F9364E06A95F1F76F910197BC
S1131690C9F708958091FE02811105C081E080930D
S11316A0FE020E943A0B0895CF93C82F0E944A0B62
S11316B083B18C23E9F38AE090E00E94C50B83B1E7
S11316C08C23B1F383B18C23CF9108950E94540BE2
S11316D00895A1E0B0E0EFE6FBE00C94F4118983F7
S11316E00E944A0B93B19095898189232196E2E067
S11316F00C9410120E94690B08952F928F939F935C
S11317002FB68091DC019091DD0101968093DC017C
S11317109093DD0190E08091DE01891F8093DE01CA
S11317209091D6019C5F9093D6018091D501805110
S11317309742C0F09093D6018093D5018091D70150
S11317409091D80101968093D7019093D80190E0AD
S11317508091D901891F8093D9018091DA01891F71
S11317608093DA012FBE9F918F912F90189528EEC8
S113177033E0019748F0F9016F9364E06A95F1F75B
S11317806F913197C9F7F5CF08950E94B70B08956B
S1131790E0E7F0E080818E7F8083A0EBB0E08C9165
S11317A083608C93A1EBB0E08C91807F8C938C91BF
S11317B082608C93B89A8081816080837894089544
S11317C08091FF02811105C081E08093FF020E9495
S11317D0C80B08950E94E00BE0E7F0E080818E7F63
S11317E080831092D7011092D8011092D9011092DF
S11317F0DA011092D6011092D50180818160808334
S11318000895682F8FED91E00E94E90F0895462F07
S113181021E0BC018FED91E00E94BA1008950F936E
S1131820CF93DF9300D000D01F92CDB7DEB79C01D9
S113183085E0E8E3F1E0DE01119601900D928A95CE
S1131840E1F7662311F00FEF01C003E145E0BE01AB
S11318506F5F7F4F8FED91E00E94E10C8FED91E07F
S11318600E94B80C0E94EA0B0F900F900F900F90FB
S11318700F90DF91CF910F91089560E00E940F0CBB
S113188008958FED91E00E942F1108956F9364E005
S11318906A95F1F76F910197C9F70895FC011182D8
S11318A0108213821282158214821682683068F4C0
S11318B089E290E0918380838BE290E0938382833A
S11318C08AE290E0958384831FC06E3070F483E2D3
S11318D090E09183808385E290E09383828384E225
S11318E090E09583848368500FC0653198F486E254
S11318F090E09183808388E290E09383828387E2FF
S113190090E0958384836E5081E001C0880F6A95CE
S1131910EAF786830895A7E0B0E0E1E9FCE00C94DF
S1131920F2118C01FC011182108213821282158241
S1131930148217821682613118F080E1808702C018
S1131940FC016087F801208B642FCE0101960E9470
S11319504E0C8F81F80181878B819C8193878287CC
S11319608D819E81958784872796E4E00C940E12DE
S1131970FC01A485B585109779F08C919185892B0C
S11319808C93A285B3859C918185809589238C93C2
S113199088EC90E00E94460C0895FC01A485B5856E
S11319A0109771F08C919185892B8C93A285B385C6
S11319B08C919185892B8C9388EC90E00E94460C45
S11319C00895A7E0B0E0E7EEFCE00C94E7117C0199
S11319D04B01642F3901402F20E00E948B0C8701BA
S11319E00F5B1F4FF80110826701F2E4CF0ED11C88
S11319F0F60110825701F3E4AF0EB11CF501108219
S1131A00F70177866686512CF7018085581650F5C4
S1131A10652C712CF401E60DF71D6081CE01019651
S1131A200E944E0C2F81F701E60DF71D218B898151
S1131A309A81F301EE0FFF1FEE0DFF1D92A381A308
S1131A408332910511F4F80108C08632910511F42E
S1131A50F60103C0899721F4F5018081822B8083EC
S1131A605394D2CF2796EFE00C940312A0E0B0E099
S1131A70ECE3FDE00C94E911EC015B016C0181E401
S1131A80C80ED11CF60180807E01F2E4EF0EF11C39
S1131A90F70170808E010D5B1F4FF801908080E08C
S1131AA09885891748F4F501E80FF11DE80FF11D39
S1131AB0118210828F5FF4CF84B1F6019081892B5B
S1131AC084B987B1F7019081892B87B98AB1F8016C
S1131AD09081892B8AB985B1F6019081892B85B9CA
S1131AE088B1F7019081892B88B98BB1F801908175
S1131AF0892B8BB98AE090E00E94460C94B1F601E0
S1131B0080818095892384B997B1F701808180957C
S1131B10892387B99AB1F8018081809589238AB98C
S1131B2095B1F60180818095892385B998B1F70133
S1131B3080818095892388B99BB1F8018081809543
S1131B4089238BB9E090B000D090B1008091B000AF
S1131B5083608093B00082E08093B1004091B20032
S1131B6080E090E02E853F858217930720F5C09092
S1131B70B2002C2D241B820F911D03B1081132C019
S1131B80F6B0F7102FC029B129112CC010C0212F95
S1131B9030E0A901440F551FF501E40FF51F6081E2
S1131BA07181672B21F11F5F2885121780F37F2C29
S1131BB0802E4C2DD7CFE092B000D092B10020E01F
S1131BC08885281730F5F501E20FF11DE20FF11DAC
S1131BD080819181892B21F48E859F8591838083D7
S1131BE02F5FEECF03B1F6B099B010E0DDCFDE0188
S1131BF0A40FB51F91960D90BC91A02D4C91DE01C0
S1131C00A20FB31F51962C91422369F691838083CE
S1131C10CACFCDB7DEB7EDE00C940512EF92FF9278
S1131C200F931F93CF93DF93FC019B01F0907C00F3
S1131C3000917A0047B118B180917A0086FDFCCFFB
S1131C4080E09085891748F4D901A80FB11DA80F29
S1131C50B11D1D921C928F5FF4CF97B182A1809524
S1131C60892387B998B182A18095892388B987E8A7
S1131C7080937A00E12C81A1E81610F0E12C29C0B0
S1131C8050E08085581718F5A52FB0E0EF01CA0F72
S1131C90DB1F8989806480937C0080917A00806452
S1131CA080937A0080917A0086FDFCCF6091780061
S1131CB070917900AA0FBB1FA20FB31F8D919C9145
S1131CC01197860F971F8D939C935F5FDACFE394F0
S1131CD0D2CF8085E816A0F4E901CE0DD11DCE0D3A
S1131CE0D11D61A170E0CB0195958795A881B9813B
S1131CF08A0F9B1F0E94591179836883E394E9CF6B
S1131D00F0927C0000937A0018B947B9CDB7DEB7DA
S1131D10E6E00C940C12A0E2B0E0E1E9FEE00C94E1
S1131D20EF118C017B01D42E8FEF840F823018F4D5
S1131D30C8010E94CD0CD80150968C91B701811135
S1131D4010C0C8010E94360DC8010E94B80CB2E050
S1131D50DB123AC0BE016F5F7F4FC8010E94360D8F
S1131D600FC0C8010E940E0EC8010E94B80CE2E028
S1131D70DE122AC0BE016F5F7F4FC8010E940E0EA3
S1131D8040E0F80180854817F8F4842F90E0880F2C
S1131D90991FF701E80FF91F21E030E02C0F3D1FD8
S1131DA0820F931FD8011E962D913C911F97DC0141
S1131DB08D919C91281B390B80819181820F931FF7
S1131DC0918380834F5FDDCFA096E7E00C940B12E4
S1131DD02F923F925F926F927F928F929F92AF92D7
S1131DE0BF92CF92DF92EF92FF920F931F93CF9304
S1131DF0DF93CDB7DEB7C056D1090FB6F894DEBF76
S1131E000FBECDBF8C014B015A01522EDA018D91C8
S1131E109C91892B31F0F40180819181892BF1F41B
S1131E2024C0D80118968C9190E0880F991F0E94C5
S1131E302112F50191838083009709F4B1C0FC015C
S1131E4020E030E0D80118968C9190E028173907EB
S1131E5014F7119211922F5F3F4FF4CFE12CF12C24
S1131E606E01B1E2CB0ED11C21C0F801808590E057
S1131E70880F991F0E942112D4018D939C9300977F
S1131E8009F48EC0FC0120E030E0D80118968C9152
S1131E9090E02817390714F7D8011E968D919C916C
S1131EA01F97819391932F5F3F4FEFCF452DBE0135
S1131EB06F5B7F4FC8010E948B0EF8016084712C08
S1131EC0FE01EF5BFF4FC6019E012F5F3F4F1901DB
S1131ED020E030E0261537054CF5E114F10489F0D3
S1131EE0DC016D917C91408151816417750748F044
S1131EF0D1016D917C91408151814617570748F07B
S1131F000DC040815181DC014D935C93E114F104D7
S1131F1079F740815181D1014D935C932F5F3F4FFD
S1131F20B2E02B0E311C32960296D4CFEFEFEE1AAC
S1131F30FE0AFAE0EF16F10409F0B8CF9E012F5F14
S1131F403F4F7901360180E090E0F801208530E0D0
S1131F50821793072CF5D7012D913D917D01B30193
S1131F606C197D09D501ED91FC91E60FF71F4081B5
S1131F7051814217530710F431832083F3012191D7
S1131F8031913F01D401ED91FC91E60FF71F40819F
S1131F9051812417350710F4318320830196D5CF5E
S1131FA0C05ADF4F0FB6F894DEBF0FBECDBFDF912E
S1131FB0CF911F910F91FF90EF90DF90CF90BF9042
S1131FC0AF909F908F907F906F905F903F902F90F5
S1131FD008951F93CF93DF93EC01162F8FEF860F95
S1131FE0823018F0662359F014C021E0AE014E5F30
S1131FF05F4FBE01CE010E94E80E123051F4AE01D3
S11320004A5F5F4FBE016C5F7F4F20E0CE010E94AC
S1132010E80EDF91CF911F910895A0E0B0E0E3E1D5
S1132020F0E10C94ED11EC018B01B42E842F8D7F23
S113203051F48C819D81892B09F497C08E819F81F5
S1132040892B09F492C08FEF8B0D823050F4888174
S11320509981892B09F489C08A819B81892B09F490
S113206084C04B2DB801CE010E948B0E780100E094
S113207010E0C12CD12C888590E0C816D9060CF04C
S113208074C081E0B8120AC0EA81FB81E00FF11F3D
S11320900190F081E02DA881B9810DC08C819D81D2
S11320A02E813F81B1100CC0F901E00FF11F0190A6
S11320B0F081E02DDC01A00FB11F8D919C9128C00F
S11320C0FC01E00FF11F40815181E881F981E00FAB
S11320D0F11F80819181EE85FF854817590710F41F
S11320E0CF0104C08E0F9F1F841B950BD901A00F35
S11320F0B11F2D913C91AA81BB81A00FB11F4D91BD
S11321005C912417350720F0E40FF51FE21BF30B55
S1132110E81BF90BA9F0D7012D913C9140E050E068
S1132120281B390B41095109A8EEB3E00E94D111D3
S11321309F0140E050E00E94A31137FD0AC002C095
S113214020E030E0293EB3E03B072CF028EE33E0FA
S113215002C020E030E0F701219331937F01FFEFCB
S1132160CF1ADF0A0E5F1F4F86CFCDB7DEB7E9E087
S11321700C940912A0E0B0E0E0ECF0E10C94E4115E
S1132180EC018B01822E0E940D102884E801412C61
S1132190512C320100E010E0C12CD12C7601312CFD
S11321A0912C58EEA52E53E0B52E921421F1E9910D
S11321B0F991882021F0C5018E1B9F0BFC01E93C9D
S11321C0F10524F4E333F10574F002C033243394AD
S11321D0DF01A30192010E94DC11C60ED71EE81E86
S11321E0F91E0E0F1F1F939498EE490E93E0591E8B
S11321F0611C711CDACF31101EC0492D50E04150D2
S1132200510924EF31E0429FC001439F900D529F3A
S1132210900D1124209123023091240228173907AC
S1132220B4F088EE93E0489F9001499F300D589F89
S1132230300D11240EC0980140E050E0C701B601F2
S11322400E948111309324022093230202C020E0D3
S113225030E0C901CDB7DEB7E2E10C940012CF93B0
S1132260DF93EC018A819B81009711F00E94B612E2
S11322708E819F81009711F00E94B6128881998106
S1132280009711F00E94B6128C819D81009711F085
S11322900E94B612DF91CF910895991B79E004C092
S11322A0991F961708F0961B881F7A95C9F7809591
S11322B00895AA1BBB1B51E107C0AA1FBB1FA61789
S11322C0B70710F0A61BB70B881F991F5A95A9F7DB
S11322D080959095BC01CD01089597FB072E16F4C7
S11322E0009407D077FD09D00E94591107FC05D04E
S11322F03EF4909581959F4F0895709561957F4F19
S11323000895A1E21A2EAA1BBB1BFD010DC0AA1F32
S1132310BB1FEE1FFF1FA217B307E407F50720F04A
S1132320A21BB30BE40BF50B661F771F881F991FC5
S11323301A9469F760957095809590959B01AC010E
S1132340BD01CF010895052E97FB1EF400940E9451
S1132350BA1157FD07D00E94811107FC03D04EF437
S11323600C94BA1150954095309521953F4F4F4F9D
S11323705F4F089590958095709561957F4F8F4F2D
S11323809F4F0895A29FB001B39FC001A39F700DFA
S1132390811D1124911DB29F700D811D1124911D69
S11323A008950E94C211A59F900DB49F900DA49F03
S11323B0800D911D11240895B7FF0C94D1110E9432
S11323C0D111821B930B08952F923F924F925F92EB
S11323D06F927F928F929F92AF92BF92CF92DF9231
S11323E0EF92FF920F931F93CF93DF93CDB7DEB796
S11323F0CA1BDB0B0FB6F894DEBF0FBECDBF09942A
S11324002A88398848885F846E847D848C849B8480
S1132410AA84B984C884DF80EE80FD800C811B818E
S1132420AA81B981CE0FD11D0FB6F894DEBF0FBEBD
S1132430CDBFED010895EE0FFF1F0590F491E02D3F
S11324400994CF93DF938230910510F482E090E0F9
S1132450E091DE03F091DF0320E030E0C0E0D0E063
S1132460309711F14081518148175907C0F048173E
S1132470590761F482819381209719F09B838A83A1
S11324802BC09093DF038093DE0326C02115310512
S113249019F04217530718F49A01BE01DF01EF0146
S11324A00280F381E02DDCCF2115310509F1281BD1
S11324B0390B2430310590F412968D919C91139729
S11324C06115710521F0FB019383828304C090930D
S11324D0DF038093DE03FD01329644C0FD01E20F69
S11324E0F31F81939193225031092D933C933AC069
S11324F02091DC033091DD03232B41F42091100162
S1132500309111013093DD032093DC0320910E01FF
S113251030910F012115310541F42DB73EB740919B
S1132520120150911301241B350BE091DC03F0914F
S1132530DD03E217F307A0F42E1B3F0B281739071E
S113254078F0AC014E5F5F4F2417350748F04E0F0B
S11325505F1F5093DD034093DC038193919302C08A
S1132560E0E0F0E0CF01DF91CF9108950F931F9346
S1132570CF93DF93009709F48CC0FC013297138248
S113258012820091DE031091DF030115110581F41D
S113259020813181820F931F2091DC033091DD0370
S11325A02817390779F5F093DD03E093DC0371C054
S11325B0D80140E050E0AE17BF0750F412962D91B9
S11325C03C911397AD012115310509F1D901F3CFE0
S11325D09D01DA013383228360817181860F971F05
S11325E08217930769F4EC0128813981260F371F7C
S11325F02E5F3F4F318320838A819B819383828323
S1132600452B29F4F093DF03E093DE0342C01396D5
S1132610FC93EE931297ED01499159919E01240F79
S1132620351FE217F30771F480819181840F951FA0
S1132630029611969C938E938281938113969C9318
S11326408E931297E0E0F0E0D80112968D919C9160
S11326501397009719F0F8018C01F6CF8D919C9196
S113266098012E5F3F4F820F931F2091DC0330911E
S1132670DD032817390769F4309729F41092DF0332
S11326801092DE0302C0138212821093DD030093C2
S1132690DC03DF91CF911F910F91089510E0CFE4F7
S11326A0D0E004C0FE010E941B122196C035D10760
S10926B0C9F7F894FFCF06
S11326B688130F00F4010400D00704010802000087
S11326C6E00320000500200000010203040506FFC4
S11326D69C01B501CF01EA010702260247026902FD
S11326E68E02B502DE020A030E0F1011123C3C479D
S11326F63332006D56005072657373204200476F83
S11327062100214C31364F3520423E424623442394
S11327164233324623384423205242433E434745FC
S11327263E4347453C3C433C4242462344234246BF
S11327362338442320523C3C42442333324533322B
S11327464633322046333246233332473332204728
S11327563332472333324133322042003E3E613323
S113276632005265636F7264656421004865726560
S1072776207765005F
S9030000FC
